{
  "contractName": "Order",
  "abi": [
    {
      "constant": true,
      "inputs": [
        {
          "name": "",
          "type": "address"
        }
      ],
      "name": "Votes",
      "outputs": [
        {
          "name": "",
          "type": "uint256"
        }
      ],
      "payable": false,
      "stateMutability": "view",
      "type": "function"
    },
    {
      "constant": true,
      "inputs": [],
      "name": "DocsHash",
      "outputs": [
        {
          "name": "",
          "type": "string"
        }
      ],
      "payable": false,
      "stateMutability": "view",
      "type": "function"
    },
    {
      "constant": true,
      "inputs": [],
      "name": "Owner",
      "outputs": [
        {
          "name": "",
          "type": "address"
        }
      ],
      "payable": false,
      "stateMutability": "view",
      "type": "function"
    },
    {
      "constant": true,
      "inputs": [
        {
          "name": "",
          "type": "uint256"
        }
      ],
      "name": "Auditors",
      "outputs": [
        {
          "name": "",
          "type": "address"
        }
      ],
      "payable": false,
      "stateMutability": "view",
      "type": "function"
    },
    {
      "constant": true,
      "inputs": [],
      "name": "FinishTime",
      "outputs": [
        {
          "name": "",
          "type": "uint256"
        }
      ],
      "payable": false,
      "stateMutability": "view",
      "type": "function"
    },
    {
      "constant": true,
      "inputs": [],
      "name": "AddresExecuter",
      "outputs": [
        {
          "name": "",
          "type": "address"
        }
      ],
      "payable": false,
      "stateMutability": "view",
      "type": "function"
    },
    {
      "inputs": [
        {
          "name": "owner",
          "type": "address"
        },
        {
          "name": "addresExecuter",
          "type": "address"
        },
        {
          "name": "auditors",
          "type": "address[3]"
        },
        {
          "name": "finishTime",
          "type": "uint256"
        },
        {
          "name": "docsHash",
          "type": "string"
        }
      ],
      "payable": true,
      "stateMutability": "payable",
      "type": "constructor"
    },
    {
      "constant": false,
      "inputs": [
        {
          "name": "approve",
          "type": "bool"
        }
      ],
      "name": "pay",
      "outputs": [],
      "payable": false,
      "stateMutability": "nonpayable",
      "type": "function"
    },
    {
      "constant": false,
      "inputs": [],
      "name": "approve",
      "outputs": [],
      "payable": false,
      "stateMutability": "nonpayable",
      "type": "function"
    },
    {
      "constant": false,
      "inputs": [
        {
          "name": "vote",
          "type": "uint256"
        }
      ],
      "name": "auditorVote",
      "outputs": [],
      "payable": false,
      "stateMutability": "nonpayable",
      "type": "function"
    },
    {
      "constant": false,
      "inputs": [],
      "name": "reject",
      "outputs": [],
      "payable": false,
      "stateMutability": "nonpayable",
      "type": "function"
    }
  ],
  "bytecode": "0x6080604052604051610a93380380610a93833981018060405281019080805190602001909291908051906020019092919091908260600180519060200190929190805182019291905050506000856000806101000a81548173ffffffffffffffffffffffffffffffffffffffff021916908373ffffffffffffffffffffffffffffffffffffffff16021790555084600160006101000a81548173ffffffffffffffffffffffffffffffffffffffff021916908373ffffffffffffffffffffffffffffffffffffffff1602179055508360029060036100de929190610198565b508260068190555081600790805190602001906100fc929190610215565b50600090505b600381101561018d5760006005600060028460038110151561012057fe5b0160009054906101000a900473ffffffffffffffffffffffffffffffffffffffff1673ffffffffffffffffffffffffffffffffffffffff1673ffffffffffffffffffffffffffffffffffffffff168152602001908152602001600020819055508080600101915050610102565b5050505050506102fd565b8260038101928215610204579160200282015b828111156102035782518260006101000a81548173ffffffffffffffffffffffffffffffffffffffff021916908373ffffffffffffffffffffffffffffffffffffffff160217905550916020019190600101906101ab565b5b5090506102119190610295565b5090565b828054600181600116156101000203166002900490600052602060002090601f016020900481019282601f1061025657805160ff1916838001178555610284565b82800160010185558215610284579182015b82811115610283578251825591602001919060010190610268565b5b50905061029191906102d8565b5090565b6102d591905b808211156102d157600081816101000a81549073ffffffffffffffffffffffffffffffffffffffff02191690555060010161029b565b5090565b90565b6102fa91905b808211156102f65760008160009055506001016102de565b5090565b90565b6107878061030c6000396000f3006080604052600436106100a4576000357c0100000000000000000000000000000000000000000000000000000000900463ffffffff16806308b342b5146100a95780630f0e1e07146100d657806312424e3f1461012d578063266af52c146101445780634dc415de146101d45780636bf3d0df146101eb578063b4a99a4e1461021a578063e89df05014610271578063eb131dbe146102de578063fabedd8a14610309575b600080fd5b3480156100b557600080fd5b506100d460048036038101908080359060200190929190505050610360565b005b3480156100e257600080fd5b50610117600480360381019080803573ffffffffffffffffffffffffffffffffffffffff1690602001909291905050506103a7565b6040518082815260200191505060405180910390f35b34801561013957600080fd5b506101426103bf565b005b34801561015057600080fd5b506101596103e6565b6040518080602001828103825283818151815260200191508051906020019080838360005b8381101561019957808201518184015260208101905061017e565b50505050905090810190601f1680156101c65780820380516001836020036101000a031916815260200191505b509250505060405180910390f35b3480156101e057600080fd5b506101e9610484565b005b3480156101f757600080fd5b5061021860048036038101908080351515906020019092919050505061059e565b005b34801561022657600080fd5b5061022f61062d565b604051808273ffffffffffffffffffffffffffffffffffffffff1673ffffffffffffffffffffffffffffffffffffffff16815260200191505060405180910390f35b34801561027d57600080fd5b5061029c60048036038101908080359060200190929190505050610652565b604051808273ffffffffffffffffffffffffffffffffffffffff1673ffffffffffffffffffffffffffffffffffffffff16815260200191505060405180910390f35b3480156102ea57600080fd5b506102f3610687565b6040518082815260200191505060405180910390f35b34801561031557600080fd5b5061031e61068d565b604051808273ffffffffffffffffffffffffffffffffffffffff1673ffffffffffffffffffffffffffffffffffffffff16815260200191505060405180910390f35b80600560003373ffffffffffffffffffffffffffffffffffffffff1673ffffffffffffffffffffffffffffffffffffffff1681526020019081526020016000208190555050565b60056020528060005260406000206000915090505481565b60018060146101000a81548160ff0219169083151502179055506006544201600681905550565b60078054600181600116156101000203166002900480601f01602080910402602001604051908101604052809291908181526020018280546001816001161561010002031660029004801561047c5780601f106104515761010080835404028352916020019161047c565b820191906000526020600020905b81548152906001019060200180831161045f57829003601f168201915b505050505081565b61048c6106b3565b1561051257600160009054906101000a900473ffffffffffffffffffffffffffffffffffffffff1673ffffffffffffffffffffffffffffffffffffffff166108fc3073ffffffffffffffffffffffffffffffffffffffff16319081150290604051600060405180830381858888f19350505050158015610510573d6000803e3d6000fd5b505b60065442111561059c576000809054906101000a900473ffffffffffffffffffffffffffffffffffffffff1673ffffffffffffffffffffffffffffffffffffffff166108fc3073ffffffffffffffffffffffffffffffffffffffff16319081150290604051600060405180830381858888f1935050505015801561059a573d6000803e3d6000fd5b505b565b8015156105aa57600080fd5b600160009054906101000a900473ffffffffffffffffffffffffffffffffffffffff1673ffffffffffffffffffffffffffffffffffffffff166108fc3073ffffffffffffffffffffffffffffffffffffffff16319081150290604051600060405180830381858888f19350505050158015610629573d6000803e3d6000fd5b5050565b6000809054906101000a900473ffffffffffffffffffffffffffffffffffffffff1681565b60028160038110151561066157fe5b016000915054906101000a900473ffffffffffffffffffffffffffffffffffffffff1681565b60065481565b600160009054906101000a900473ffffffffffffffffffffffffffffffffffffffff1681565b600080600090505b6003811015610752576001600560006002846003811015156106d957fe5b0160009054906101000a900473ffffffffffffffffffffffffffffffffffffffff1673ffffffffffffffffffffffffffffffffffffffff1673ffffffffffffffffffffffffffffffffffffffff1681526020019081526020016000205414156107455760009150610757565b80806001019150506106bb565b600191505b50905600a165627a7a723058207ee5c8806a81760383bdc801bf282020b4e06eed8f1323219421c1a437cbe3d40029",
  "source": "pragma solidity ^0.4.0;\n\ncontract Order {\n\n    address public Owner;\n    address public AddresExecuter;\n    bool executerApprove;\n    address[3] public Auditors;\n    mapping(address => uint) public Votes;\n\n    uint public FinishTime;\n    string public DocsHash;\n\n    constructor(address owner, address addresExecuter,address[3] auditors, uint finishTime, string docsHash) public payable{\n\n        Owner = owner;\n        AddresExecuter = addresExecuter;\n        Auditors = auditors;\n        FinishTime = finishTime;\n        DocsHash = docsHash;\n\n        for (uint i = 0; i < 3 ; i++) {\n            Votes[Auditors[i]] = 0;\n        }\n           \n    }\n\n    function pay(bool approve) public  { // действие заказчика\n        require(approve);\n        AddresExecuter.transfer(address(this).balance);\n    }\n\n    function approve() public { // действие исполнителя\n        executerApprove = true;\n        FinishTime = now + FinishTime;\n    }\n\n    function auditorVote(uint vote) public { // действие аудитора\n        Votes[msg.sender] = vote;\n    }\n\n    function reject() public { // действие заказчика и исполнителя\n\n        if(checkAuditorsDecisions()){\n            AddresExecuter.transfer(address(this).balance);\n        }\n\n        if(now > FinishTime) {\n            Owner.transfer(address(this).balance);\n        }\n\n\n    }\n\n    function checkAuditorsDecisions() private returns (bool success) {\n        for(uint i = 0; i < 3 ; i++) {\n            if(Votes[Auditors[i]] == 1)\n                return false;\n        }\n        return true;\n    }\n\n}\n",
  "sourcePath": "/Users/andreysinetskiy/GitHub/hse-blockchain/contracts/Order.sol",
  "compiler": {
    "name": "solc",
    "version": "0.4.24+commit.e67f0147.Emscripten.clang"
  },
  "schemaVersion": "2.0.1",
  "updatedAt": "2018-07-13T18:09:53.588Z"
}