{
  "contractName": "OrdersHub",
  "abi": [
    {
      "constant": true,
      "inputs": [
        {
          "name": "",
          "type": "uint256"
        }
      ],
      "name": "orders",
      "outputs": [
        {
          "name": "",
          "type": "address"
        }
      ],
      "payable": false,
      "stateMutability": "view",
      "type": "function"
    },
    {
      "inputs": [],
      "payable": false,
      "stateMutability": "nonpayable",
      "type": "constructor"
    },
    {
      "constant": false,
      "inputs": [
        {
          "name": "addresExecuter",
          "type": "address"
        },
        {
          "name": "auditors",
          "type": "address[3]"
        },
        {
          "name": "finishTime",
          "type": "uint256"
        },
        {
          "name": "DocsHash",
          "type": "string"
        }
      ],
      "name": "makeOrder",
      "outputs": [],
      "payable": true,
      "stateMutability": "payable",
      "type": "function"
    }
  ],
  "bytecode": "0x608060405234801561001057600080fd5b50336000806101000a81548173ffffffffffffffffffffffffffffffffffffffff021916908373ffffffffffffffffffffffffffffffffffffffff160217905550610e28806100606000396000f30060806040526004361061004c576000357c0100000000000000000000000000000000000000000000000000000000900463ffffffff168063887ff7b714610051578063a85c38ef14610106575b600080fd5b610104600480360381019080803573ffffffffffffffffffffffffffffffffffffffff169060200190929190806060019060038060200260405190810160405280929190826003602002808284378201915050505050919291929080359060200190929190803590602001908201803590602001908080601f0160208091040260200160405190810160405280939291908181526020018383808284378201915050505050509192919290505050610173565b005b34801561011257600080fd5b506101316004803603810190808035906020019092919050505061031b565b604051808273ffffffffffffffffffffffffffffffffffffffff1673ffffffffffffffffffffffffffffffffffffffff16815260200191505060405180910390f35b6000343386868686610183610359565b808673ffffffffffffffffffffffffffffffffffffffff1673ffffffffffffffffffffffffffffffffffffffff1681526020018573ffffffffffffffffffffffffffffffffffffffff1673ffffffffffffffffffffffffffffffffffffffff16815260200184600360200280838360005b8381101561020f5780820151818401526020810190506101f4565b5050505090500183815260200180602001828103825283818151815260200191508051906020019080838360005b8381101561025857808201518184015260208101905061023d565b50505050905090810190601f1680156102855780820380516001836020036101000a031916815260200191505b5096505050505050506040518091039082f0801580156102a9573d6000803e3d6000fd5b509050905060018190806001815401808255809150509060018203906000526020600020016000909192909190916101000a81548173ffffffffffffffffffffffffffffffffffffffff021916908373ffffffffffffffffffffffffffffffffffffffff160217905550505050505050565b60018181548110151561032a57fe5b906000526020600020016000915054906101000a900473ffffffffffffffffffffffffffffffffffffffff1681565b604051610a938061036a8339019056006080604052604051610a93380380610a93833981018060405281019080805190602001909291908051906020019092919091908260600180519060200190929190805182019291905050506000856000806101000a81548173ffffffffffffffffffffffffffffffffffffffff021916908373ffffffffffffffffffffffffffffffffffffffff16021790555084600160006101000a81548173ffffffffffffffffffffffffffffffffffffffff021916908373ffffffffffffffffffffffffffffffffffffffff1602179055508360029060036100de929190610198565b508260068190555081600790805190602001906100fc929190610215565b50600090505b600381101561018d5760006005600060028460038110151561012057fe5b0160009054906101000a900473ffffffffffffffffffffffffffffffffffffffff1673ffffffffffffffffffffffffffffffffffffffff1673ffffffffffffffffffffffffffffffffffffffff168152602001908152602001600020819055508080600101915050610102565b5050505050506102fd565b8260038101928215610204579160200282015b828111156102035782518260006101000a81548173ffffffffffffffffffffffffffffffffffffffff021916908373ffffffffffffffffffffffffffffffffffffffff160217905550916020019190600101906101ab565b5b5090506102119190610295565b5090565b828054600181600116156101000203166002900490600052602060002090601f016020900481019282601f1061025657805160ff1916838001178555610284565b82800160010185558215610284579182015b82811115610283578251825591602001919060010190610268565b5b50905061029191906102d8565b5090565b6102d591905b808211156102d157600081816101000a81549073ffffffffffffffffffffffffffffffffffffffff02191690555060010161029b565b5090565b90565b6102fa91905b808211156102f65760008160009055506001016102de565b5090565b90565b6107878061030c6000396000f3006080604052600436106100a4576000357c0100000000000000000000000000000000000000000000000000000000900463ffffffff16806308b342b5146100a95780630f0e1e07146100d657806312424e3f1461012d578063266af52c146101445780634dc415de146101d45780636bf3d0df146101eb578063b4a99a4e1461021a578063e89df05014610271578063eb131dbe146102de578063fabedd8a14610309575b600080fd5b3480156100b557600080fd5b506100d460048036038101908080359060200190929190505050610360565b005b3480156100e257600080fd5b50610117600480360381019080803573ffffffffffffffffffffffffffffffffffffffff1690602001909291905050506103a7565b6040518082815260200191505060405180910390f35b34801561013957600080fd5b506101426103bf565b005b34801561015057600080fd5b506101596103e6565b6040518080602001828103825283818151815260200191508051906020019080838360005b8381101561019957808201518184015260208101905061017e565b50505050905090810190601f1680156101c65780820380516001836020036101000a031916815260200191505b509250505060405180910390f35b3480156101e057600080fd5b506101e9610484565b005b3480156101f757600080fd5b5061021860048036038101908080351515906020019092919050505061059e565b005b34801561022657600080fd5b5061022f61062d565b604051808273ffffffffffffffffffffffffffffffffffffffff1673ffffffffffffffffffffffffffffffffffffffff16815260200191505060405180910390f35b34801561027d57600080fd5b5061029c60048036038101908080359060200190929190505050610652565b604051808273ffffffffffffffffffffffffffffffffffffffff1673ffffffffffffffffffffffffffffffffffffffff16815260200191505060405180910390f35b3480156102ea57600080fd5b506102f3610687565b6040518082815260200191505060405180910390f35b34801561031557600080fd5b5061031e61068d565b604051808273ffffffffffffffffffffffffffffffffffffffff1673ffffffffffffffffffffffffffffffffffffffff16815260200191505060405180910390f35b80600560003373ffffffffffffffffffffffffffffffffffffffff1673ffffffffffffffffffffffffffffffffffffffff1681526020019081526020016000208190555050565b60056020528060005260406000206000915090505481565b60018060146101000a81548160ff0219169083151502179055506006544201600681905550565b60078054600181600116156101000203166002900480601f01602080910402602001604051908101604052809291908181526020018280546001816001161561010002031660029004801561047c5780601f106104515761010080835404028352916020019161047c565b820191906000526020600020905b81548152906001019060200180831161045f57829003601f168201915b505050505081565b61048c6106b3565b1561051257600160009054906101000a900473ffffffffffffffffffffffffffffffffffffffff1673ffffffffffffffffffffffffffffffffffffffff166108fc3073ffffffffffffffffffffffffffffffffffffffff16319081150290604051600060405180830381858888f19350505050158015610510573d6000803e3d6000fd5b505b60065442111561059c576000809054906101000a900473ffffffffffffffffffffffffffffffffffffffff1673ffffffffffffffffffffffffffffffffffffffff166108fc3073ffffffffffffffffffffffffffffffffffffffff16319081150290604051600060405180830381858888f1935050505015801561059a573d6000803e3d6000fd5b505b565b8015156105aa57600080fd5b600160009054906101000a900473ffffffffffffffffffffffffffffffffffffffff1673ffffffffffffffffffffffffffffffffffffffff166108fc3073ffffffffffffffffffffffffffffffffffffffff16319081150290604051600060405180830381858888f19350505050158015610629573d6000803e3d6000fd5b5050565b6000809054906101000a900473ffffffffffffffffffffffffffffffffffffffff1681565b60028160038110151561066157fe5b016000915054906101000a900473ffffffffffffffffffffffffffffffffffffffff1681565b60065481565b600160009054906101000a900473ffffffffffffffffffffffffffffffffffffffff1681565b600080600090505b6003811015610752576001600560006002846003811015156106d957fe5b0160009054906101000a900473ffffffffffffffffffffffffffffffffffffffff1673ffffffffffffffffffffffffffffffffffffffff1673ffffffffffffffffffffffffffffffffffffffff1681526020019081526020016000205414156107455760009150610757565b80806001019150506106bb565b600191505b50905600a165627a7a723058207ee5c8806a81760383bdc801bf282020b4e06eed8f1323219421c1a437cbe3d40029a165627a7a72305820eddf780364893b346ef9cc31bfa2ec6946f4e9a15d28bad1c45b5fe5ef4e8a880029",
  "source": "pragma solidity ^0.4.0;\n\nimport \"./Order.sol\";\ncontract OrdersHub \n{\n    address owner;\n\n    constructor() public {\n        owner = msg.sender;\n    }\n\n    Order[] public orders;\n\n    function makeOrder(address addresExecuter, address[3] auditors, uint finishTime,string DocsHash) public payable {\n        Order order = (new Order).value(msg.value)(msg.sender, addresExecuter, auditors, finishTime, DocsHash);\n        orders.push(order);\n    }\n    \n}",
  "sourcePath": "/Users/andreysinetskiy/GitHub/hse-blockchain/contracts/OrderHub.sol",
  "compiler": {
    "name": "solc",
    "version": "0.4.24+commit.e67f0147.Emscripten.clang"
  },
  "schemaVersion": "2.0.1",
  "updatedAt": "2018-07-13T18:10:05.557Z"
}